:0809900054656D70203D20004C
:1008C000D2B37F027E001208DBC2B3E9C454F0FF4A
:0B08D000E590540F4FF590D2B37F026B
:1008DB00E4FDFCC3ED9FEC9E5015E4FBFA0BBB0053
:0F08EB00010ABA04F8BBFBF50DBD00010C80E457
:0108FA0022DB
:10095A00A907E954F0FFE590540F4FF590C2B2127F
:05096A0008C0C2B32229
:10096F00A907E954F0FFE590540F4FF590D2B2125A
:05097F0008C0C2B32214
:1008FB008B0B8A0C890DAB0BAA0CA90D120800608F
:10090B0013050DE50D7002050C14F9120800FF120A
:05091B00096F80E222DB
:100920007F147E001208DB7F0212095A7F28120909
:100930005A7F0C12095A7F0612095A7F0102095A7E
:10094000D2A5D2A67F017E001208DBC2A5C2A630C6
:0A095000A7FDE5801313543FFF22BA
:10086E001209201209408F087509008F0A7F801225
:10087E00095A7BFF7A0979901208FBAE09AF0A7C00
:10088E00007D0A120819EF2430FF12096FAE09AF6E
:10089E000A7C007D0A120819ED2430FF12096F7FC1
:1008AE00DF12096F7F4312096F7F2C7E011208DB66
:0208BE0080B107
:030000000209846E
:0C098400787FE4F6D8FD75810D02086E46
:10080000BB010689828A83E0225002E722BBFE02F6
:09081000E32289828A83E4932229
:10081900BC000BBE0029EF8DF084FFADF022E4CCC3
:10082900F875F008EF2FFFEE33FEEC33FCEE9DEC8C
:10083900984005FCEE9DFE0FD5F0E9E4CEFD22EDD2
:10084900F8F5F0EE8420D21CFEADF075F008EF2F1C
:10085900FFED33FD4007985006D5F0F222C398FD0D
:050869000FD5F0EA22AA
:00000001FF
